{
  "_format": "hh-sol-artifact-1",
  "contractName": "PokemonCards",
  "sourceName": "contracts/PokemonCards.sol",
  "abi": [
    {
      "inputs": [],
      "stateMutability": "nonpayable",
      "type": "constructor"
    },
    {
      "inputs": [
        {
          "internalType": "address",
          "name": "sender",
          "type": "address"
        },
        {
          "internalType": "uint256",
          "name": "balance",
          "type": "uint256"
        },
        {
          "internalType": "uint256",
          "name": "needed",
          "type": "uint256"
        },
        {
          "internalType": "uint256",
          "name": "tokenId",
          "type": "uint256"
        }
      ],
      "name": "ERC1155InsufficientBalance",
      "type": "error"
    },
    {
      "inputs": [
        {
          "internalType": "address",
          "name": "approver",
          "type": "address"
        }
      ],
      "name": "ERC1155InvalidApprover",
      "type": "error"
    },
    {
      "inputs": [
        {
          "internalType": "uint256",
          "name": "idsLength",
          "type": "uint256"
        },
        {
          "internalType": "uint256",
          "name": "valuesLength",
          "type": "uint256"
        }
      ],
      "name": "ERC1155InvalidArrayLength",
      "type": "error"
    },
    {
      "inputs": [
        {
          "internalType": "address",
          "name": "operator",
          "type": "address"
        }
      ],
      "name": "ERC1155InvalidOperator",
      "type": "error"
    },
    {
      "inputs": [
        {
          "internalType": "address",
          "name": "receiver",
          "type": "address"
        }
      ],
      "name": "ERC1155InvalidReceiver",
      "type": "error"
    },
    {
      "inputs": [
        {
          "internalType": "address",
          "name": "sender",
          "type": "address"
        }
      ],
      "name": "ERC1155InvalidSender",
      "type": "error"
    },
    {
      "inputs": [
        {
          "internalType": "address",
          "name": "operator",
          "type": "address"
        },
        {
          "internalType": "address",
          "name": "owner",
          "type": "address"
        }
      ],
      "name": "ERC1155MissingApprovalForAll",
      "type": "error"
    },
    {
      "inputs": [
        {
          "internalType": "address",
          "name": "owner",
          "type": "address"
        }
      ],
      "name": "OwnableInvalidOwner",
      "type": "error"
    },
    {
      "inputs": [
        {
          "internalType": "address",
          "name": "account",
          "type": "address"
        }
      ],
      "name": "OwnableUnauthorizedAccount",
      "type": "error"
    },
    {
      "anonymous": false,
      "inputs": [
        {
          "indexed": true,
          "internalType": "address",
          "name": "account",
          "type": "address"
        },
        {
          "indexed": true,
          "internalType": "address",
          "name": "operator",
          "type": "address"
        },
        {
          "indexed": false,
          "internalType": "bool",
          "name": "approved",
          "type": "bool"
        }
      ],
      "name": "ApprovalForAll",
      "type": "event"
    },
    {
      "anonymous": false,
      "inputs": [
        {
          "indexed": true,
          "internalType": "uint256",
          "name": "tokenId",
          "type": "uint256"
        },
        {
          "indexed": true,
          "internalType": "address",
          "name": "owner",
          "type": "address"
        },
        {
          "indexed": false,
          "internalType": "uint256",
          "name": "amount",
          "type": "uint256"
        }
      ],
      "name": "CardMinted",
      "type": "event"
    },
    {
      "anonymous": false,
      "inputs": [
        {
          "indexed": true,
          "internalType": "address",
          "name": "previousOwner",
          "type": "address"
        },
        {
          "indexed": true,
          "internalType": "address",
          "name": "newOwner",
          "type": "address"
        }
      ],
      "name": "OwnershipTransferred",
      "type": "event"
    },
    {
      "anonymous": false,
      "inputs": [
        {
          "indexed": true,
          "internalType": "address",
          "name": "player",
          "type": "address"
        },
        {
          "indexed": false,
          "internalType": "uint256",
          "name": "tokenId",
          "type": "uint256"
        }
      ],
      "name": "StarterPackClaimed",
      "type": "event"
    },
    {
      "anonymous": false,
      "inputs": [
        {
          "indexed": true,
          "internalType": "address",
          "name": "operator",
          "type": "address"
        },
        {
          "indexed": true,
          "internalType": "address",
          "name": "from",
          "type": "address"
        },
        {
          "indexed": true,
          "internalType": "address",
          "name": "to",
          "type": "address"
        },
        {
          "indexed": false,
          "internalType": "uint256[]",
          "name": "ids",
          "type": "uint256[]"
        },
        {
          "indexed": false,
          "internalType": "uint256[]",
          "name": "values",
          "type": "uint256[]"
        }
      ],
      "name": "TransferBatch",
      "type": "event"
    },
    {
      "anonymous": false,
      "inputs": [
        {
          "indexed": true,
          "internalType": "address",
          "name": "operator",
          "type": "address"
        },
        {
          "indexed": true,
          "internalType": "address",
          "name": "from",
          "type": "address"
        },
        {
          "indexed": true,
          "internalType": "address",
          "name": "to",
          "type": "address"
        },
        {
          "indexed": false,
          "internalType": "uint256",
          "name": "id",
          "type": "uint256"
        },
        {
          "indexed": false,
          "internalType": "uint256",
          "name": "value",
          "type": "uint256"
        }
      ],
      "name": "TransferSingle",
      "type": "event"
    },
    {
      "anonymous": false,
      "inputs": [
        {
          "indexed": false,
          "internalType": "string",
          "name": "value",
          "type": "string"
        },
        {
          "indexed": true,
          "internalType": "uint256",
          "name": "id",
          "type": "uint256"
        }
      ],
      "name": "URI",
      "type": "event"
    },
    {
      "inputs": [
        {
          "internalType": "address",
          "name": "account",
          "type": "address"
        },
        {
          "internalType": "uint256",
          "name": "id",
          "type": "uint256"
        }
      ],
      "name": "balanceOf",
      "outputs": [
        {
          "internalType": "uint256",
          "name": "",
          "type": "uint256"
        }
      ],
      "stateMutability": "view",
      "type": "function"
    },
    {
      "inputs": [
        {
          "internalType": "address[]",
          "name": "accounts",
          "type": "address[]"
        },
        {
          "internalType": "uint256[]",
          "name": "ids",
          "type": "uint256[]"
        }
      ],
      "name": "balanceOfBatch",
      "outputs": [
        {
          "internalType": "uint256[]",
          "name": "",
          "type": "uint256[]"
        }
      ],
      "stateMutability": "view",
      "type": "function"
    },
    {
      "inputs": [],
      "name": "claimStarterPack",
      "outputs": [],
      "stateMutability": "nonpayable",
      "type": "function"
    },
    {
      "inputs": [
        {
          "internalType": "uint256",
          "name": "id",
          "type": "uint256"
        }
      ],
      "name": "exists",
      "outputs": [
        {
          "internalType": "bool",
          "name": "",
          "type": "bool"
        }
      ],
      "stateMutability": "view",
      "type": "function"
    },
    {
      "inputs": [
        {
          "internalType": "uint256",
          "name": "tokenId",
          "type": "uint256"
        }
      ],
      "name": "getCardAttributes",
      "outputs": [
        {
          "components": [
            {
              "internalType": "string",
              "name": "element",
              "type": "string"
            },
            {
              "internalType": "uint8",
              "name": "power",
              "type": "uint8"
            },
            {
              "internalType": "uint8",
              "name": "defense",
              "type": "uint8"
            },
            {
              "internalType": "string",
              "name": "special",
              "type": "string"
            },
            {
              "internalType": "uint8",
              "name": "rarity",
              "type": "uint8"
            },
            {
              "internalType": "string",
              "name": "imageUrl",
              "type": "string"
            }
          ],
          "internalType": "struct PokemonCards.CardAttributes",
          "name": "",
          "type": "tuple"
        }
      ],
      "stateMutability": "view",
      "type": "function"
    },
    {
      "inputs": [
        {
          "internalType": "address",
          "name": "user",
          "type": "address"
        }
      ],
      "name": "hasClaimedStarterPack",
      "outputs": [
        {
          "internalType": "bool",
          "name": "",
          "type": "bool"
        }
      ],
      "stateMutability": "view",
      "type": "function"
    },
    {
      "inputs": [
        {
          "internalType": "address",
          "name": "account",
          "type": "address"
        },
        {
          "internalType": "address",
          "name": "operator",
          "type": "address"
        }
      ],
      "name": "isApprovedForAll",
      "outputs": [
        {
          "internalType": "bool",
          "name": "",
          "type": "bool"
        }
      ],
      "stateMutability": "view",
      "type": "function"
    },
    {
      "inputs": [
        {
          "internalType": "address",
          "name": "to",
          "type": "address"
        },
        {
          "internalType": "uint256[]",
          "name": "ids",
          "type": "uint256[]"
        },
        {
          "internalType": "uint256[]",
          "name": "amounts",
          "type": "uint256[]"
        },
        {
          "internalType": "bytes",
          "name": "data",
          "type": "bytes"
        }
      ],
      "name": "mintBatch",
      "outputs": [],
      "stateMutability": "nonpayable",
      "type": "function"
    },
    {
      "inputs": [
        {
          "internalType": "string",
          "name": "element",
          "type": "string"
        },
        {
          "internalType": "uint8",
          "name": "power",
          "type": "uint8"
        },
        {
          "internalType": "uint8",
          "name": "defense",
          "type": "uint8"
        },
        {
          "internalType": "string",
          "name": "special",
          "type": "string"
        },
        {
          "internalType": "uint8",
          "name": "rarity",
          "type": "uint8"
        }
      ],
      "name": "mintCard",
      "outputs": [],
      "stateMutability": "nonpayable",
      "type": "function"
    },
    {
      "inputs": [],
      "name": "owner",
      "outputs": [
        {
          "internalType": "address",
          "name": "",
          "type": "address"
        }
      ],
      "stateMutability": "view",
      "type": "function"
    },
    {
      "inputs": [],
      "name": "renounceOwnership",
      "outputs": [],
      "stateMutability": "nonpayable",
      "type": "function"
    },
    {
      "inputs": [
        {
          "internalType": "address",
          "name": "from",
          "type": "address"
        },
        {
          "internalType": "address",
          "name": "to",
          "type": "address"
        },
        {
          "internalType": "uint256[]",
          "name": "ids",
          "type": "uint256[]"
        },
        {
          "internalType": "uint256[]",
          "name": "values",
          "type": "uint256[]"
        },
        {
          "internalType": "bytes",
          "name": "data",
          "type": "bytes"
        }
      ],
      "name": "safeBatchTransferFrom",
      "outputs": [],
      "stateMutability": "nonpayable",
      "type": "function"
    },
    {
      "inputs": [
        {
          "internalType": "address",
          "name": "from",
          "type": "address"
        },
        {
          "internalType": "address",
          "name": "to",
          "type": "address"
        },
        {
          "internalType": "uint256",
          "name": "id",
          "type": "uint256"
        },
        {
          "internalType": "uint256",
          "name": "value",
          "type": "uint256"
        },
        {
          "internalType": "bytes",
          "name": "data",
          "type": "bytes"
        }
      ],
      "name": "safeTransferFrom",
      "outputs": [],
      "stateMutability": "nonpayable",
      "type": "function"
    },
    {
      "inputs": [
        {
          "internalType": "address",
          "name": "operator",
          "type": "address"
        },
        {
          "internalType": "bool",
          "name": "approved",
          "type": "bool"
        }
      ],
      "name": "setApprovalForAll",
      "outputs": [],
      "stateMutability": "nonpayable",
      "type": "function"
    },
    {
      "inputs": [
        {
          "internalType": "bytes4",
          "name": "interfaceId",
          "type": "bytes4"
        }
      ],
      "name": "supportsInterface",
      "outputs": [
        {
          "internalType": "bool",
          "name": "",
          "type": "bool"
        }
      ],
      "stateMutability": "view",
      "type": "function"
    },
    {
      "inputs": [],
      "name": "totalSupply",
      "outputs": [
        {
          "internalType": "uint256",
          "name": "",
          "type": "uint256"
        }
      ],
      "stateMutability": "view",
      "type": "function"
    },
    {
      "inputs": [
        {
          "internalType": "uint256",
          "name": "id",
          "type": "uint256"
        }
      ],
      "name": "totalSupply",
      "outputs": [
        {
          "internalType": "uint256",
          "name": "",
          "type": "uint256"
        }
      ],
      "stateMutability": "view",
      "type": "function"
    },
    {
      "inputs": [
        {
          "internalType": "address",
          "name": "newOwner",
          "type": "address"
        }
      ],
      "name": "transferOwnership",
      "outputs": [],
      "stateMutability": "nonpayable",
      "type": "function"
    },
    {
      "inputs": [
        {
          "internalType": "uint256",
          "name": "tokenId",
          "type": "uint256"
        }
      ],
      "name": "uri",
      "outputs": [
        {
          "internalType": "string",
          "name": "",
          "type": "string"
        }
      ],
      "stateMutability": "view",
      "type": "function"
    }
  ],
  "bytecode": "0x608060405234801561001057600080fd5b50336040518060600160405280602381526020016142986023913961003a816100c260201b60201c565b50600073ffffffffffffffffffffffffffffffffffffffff168173ffffffffffffffffffffffffffffffffffffffff16036100ad5760006040517f1e4fbdf70000000000000000000000000000000000000000000000000000000081526004016100a491906101dc565b60405180910390fd5b6100bc816100d560201b60201c565b50610519565b80600290816100d19190610447565b5050565b6000600560009054906101000a900473ffffffffffffffffffffffffffffffffffffffff16905081600560006101000a81548173ffffffffffffffffffffffffffffffffffffffff021916908373ffffffffffffffffffffffffffffffffffffffff1602179055508173ffffffffffffffffffffffffffffffffffffffff168173ffffffffffffffffffffffffffffffffffffffff167f8be0079c531659141344cd1fd0a4f28419497f9722a3daafe3b4186f6b6457e060405160405180910390a35050565b600073ffffffffffffffffffffffffffffffffffffffff82169050919050565b60006101c68261019b565b9050919050565b6101d6816101bb565b82525050565b60006020820190506101f160008301846101cd565b92915050565b600081519050919050565b7f4e487b7100000000000000000000000000000000000000000000000000000000600052604160045260246000fd5b7f4e487b7100000000000000000000000000000000000000000000000000000000600052602260045260246000fd5b6000600282049050600182168061027857607f821691505b60208210810361028b5761028a610231565b5b50919050565b60008190508160005260206000209050919050565b60006020601f8301049050919050565b600082821b905092915050565b6000600883026102f37fffffffffffffffffffffffffffffffffffffffffffffffffffffffffffffffff826102b6565b6102fd86836102b6565b95508019841693508086168417925050509392505050565b6000819050919050565b6000819050919050565b600061034461033f61033a84610315565b61031f565b610315565b9050919050565b6000819050919050565b61035e83610329565b61037261036a8261034b565b8484546102c3565b825550505050565b600090565b61038761037a565b610392818484610355565b505050565b5b818110156103b6576103ab60008261037f565b600181019050610398565b5050565b601f8211156103fb576103cc81610291565b6103d5846102a6565b810160208510156103e4578190505b6103f86103f0856102a6565b830182610397565b50505b505050565b600082821c905092915050565b600061041e60001984600802610400565b1980831691505092915050565b6000610437838361040d565b9150826002028217905092915050565b610450826101f7565b67ffffffffffffffff81111561046957610468610202565b5b6104738254610260565b61047e8282856103ba565b600060209050601f8311600181146104b1576000841561049f578287015190505b6104a9858261042b565b865550610511565b601f1984166104bf86610291565b60005b828110156104e7578489015182556001820191506020850194506020810190506104c2565b868310156105045784890151610500601f89168261040d565b8355505b6001600288020188555050505b505050505050565b613d70806105286000396000f3fe608060405234801561001057600080fd5b50600436106101205760003560e01c80638da5cb5b116100ad578063ddd671f611610071578063ddd671f614610319578063e86badf414610335578063e985e9c514610365578063f242432a14610395578063f2fde38b146103b157610120565b80638da5cb5b146102755780639cd51d2514610293578063a22cb4651461029d578063bd85b039146102b9578063d5aaa5b0146102e957610120565b80631f7fdffa116100f45780631f7fdffa146101d35780632eb2c2d6146101ef5780634e1273f41461020b5780634f558e791461023b578063715018a61461026b57610120565b8062fdd58e1461012557806301ffc9a7146101555780630e89341c1461018557806318160ddd146101b5575b600080fd5b61013f600480360381019061013a9190612595565b6103cd565b60405161014c91906125e4565b60405180910390f35b61016f600480360381019061016a9190612657565b610427565b60405161017c919061269f565b60405180910390f35b61019f600480360381019061019a91906126ba565b610439565b6040516101ac9190612777565b60405180910390f35b6101bd6104bc565b6040516101ca91906125e4565b60405180910390f35b6101ed60048036038101906101e89190612996565b6104c6565b005b61020960048036038101906102049190612a51565b6104e0565b005b61022560048036038101906102209190612be3565b610588565b6040516102329190612d19565b60405180910390f35b610255600480360381019061025091906126ba565b610691565b604051610262919061269f565b60405180910390f35b6102736106a5565b005b61027d6106b9565b60405161028a9190612d4a565b60405180910390f35b61029b6106e3565b005b6102b760048036038101906102b29190612d91565b610844565b005b6102d360048036038101906102ce91906126ba565b61085a565b6040516102e091906125e4565b60405180910390f35b61030360048036038101906102fe91906126ba565b610877565b6040516103109190612ece565b60405180910390f35b610333600480360381019061032e9190612fbd565b610af9565b005b61034f600480360381019061034a9190613070565b610ee9565b60405161035c919061269f565b60405180910390f35b61037f600480360381019061037a919061309d565b610f3f565b60405161038c919061269f565b60405180910390f35b6103af60048036038101906103aa91906130dd565b610fd3565b005b6103cb60048036038101906103c69190613070565b61107b565b005b600080600083815260200190815260200160002060008473ffffffffffffffffffffffffffffffffffffffff1673ffffffffffffffffffffffffffffffffffffffff16815260200190815260200160002054905092915050565b600061043282611101565b9050919050565b6060610444826111e3565b610483576040517f08c379a000000000000000000000000000000000000000000000000000000000815260040161047a906131c0565b60405180910390fd5b61048c826111f1565b61049583611285565b6040516020016104a692919061321c565b6040516020818303038152906040529050919050565b6000600454905090565b6104ce611353565b6104da848484846113da565b50505050565b60006104ea611460565b90508073ffffffffffffffffffffffffffffffffffffffff168673ffffffffffffffffffffffffffffffffffffffff161415801561052f575061052d8682610f3f565b155b156105735780866040517fe237d92200000000000000000000000000000000000000000000000000000000815260040161056a929190613240565b60405180910390fd5b6105808686868686611468565b505050505050565b606081518351146105d457815183516040517f5b0599910000000000000000000000000000000000000000000000000000000081526004016105cb929190613269565b60405180910390fd5b6000835167ffffffffffffffff8111156105f1576105f061279e565b5b60405190808252806020026020018201604052801561061f5781602001602082028036833780820191505090505b50905060005b84518110156106865761065c610644828761156090919063ffffffff16565b610657838761157490919063ffffffff16565b6103cd565b82828151811061066f5761066e613292565b5b602002602001018181525050806001019050610625565b508091505092915050565b60008061069d8361085a565b119050919050565b6106ad611353565b6106b76000611588565b565b6000600560009054906101000a900473ffffffffffffffffffffffffffffffffffffffff16905090565b600960003373ffffffffffffffffffffffffffffffffffffffff1673ffffffffffffffffffffffffffffffffffffffff16815260200190815260200160002060009054906101000a900460ff1615610770576040517f08c379a00000000000000000000000000000000000000000000000000000000081526004016107679061330d565b60405180910390fd5b6001600960003373ffffffffffffffffffffffffffffffffffffffff1673ffffffffffffffffffffffffffffffffffffffff16815260200190815260200160002060006101000a81548160ff0219169083151502179055506108426040518060400160405280600581526020017f5761746572000000000000000000000000000000000000000000000000000000815250603060416040518060400160405280600981526020017f57617465722047756e00000000000000000000000000000000000000000000008152506001610af9565b565b61085661084f611460565b838361164e565b5050565b600060036000838152602001908152602001600020549050919050565b61087f6124ae565b610888826111e3565b6108c7576040517f08c379a00000000000000000000000000000000000000000000000000000000081526004016108be90613379565b60405180910390fd5b600860008381526020019081526020016000206040518060c00160405290816000820180546108f5906133c8565b80601f0160208091040260200160405190810160405280929190818152602001828054610921906133c8565b801561096e5780601f106109435761010080835404028352916020019161096e565b820191906000526020600020905b81548152906001019060200180831161095157829003601f168201915b505050505081526020016001820160009054906101000a900460ff1660ff1660ff1681526020016001820160019054906101000a900460ff1660ff1660ff1681526020016002820180546109c1906133c8565b80601f01602080910402602001604051908101604052809291908181526020018280546109ed906133c8565b8015610a3a5780601f10610a0f57610100808354040283529160200191610a3a565b820191906000526020600020905b815481529060010190602001808311610a1d57829003601f168201915b505050505081526020016003820160009054906101000a900460ff1660ff1660ff168152602001600482018054610a70906133c8565b80601f0160208091040260200160405190810160405280929190818152602001828054610a9c906133c8565b8015610ae95780601f10610abe57610100808354040283529160200191610ae9565b820191906000526020600020905b815481529060010190602001808311610acc57829003601f168201915b5050505050815250509050919050565b60648460ff161115610b40576040517f08c379a0000000000000000000000000000000000000000000000000000000008152600401610b3790613445565b60405180910390fd5b60648360ff161115610b87576040517f08c379a0000000000000000000000000000000000000000000000000000000008152600401610b7e906134b1565b60405180910390fd5b60018160ff1610158015610b9f575060058160ff1611155b610bde576040517f08c379a0000000000000000000000000000000000000000000000000000000008152600401610bd59061351d565b60405180910390fd5b600060066000815480929190610bf39061356c565b9190505590506000600190506000604051806020016040528060008152509050604051602001610c2290613600565b6040516020818303038152906040528051906020012088604051602001610c499190613615565b6040516020818303038152906040528051906020012003610c84576040518060a0016040528060658152602001613cd6606591399050610d84565b604051602001610c9390613678565b6040516020818303038152906040528051906020012088604051602001610cba9190613615565b6040516020818303038152906040528051906020012003610cf5576040518060a0016040528060658152602001613c71606591399050610d83565b604051602001610d04906136d9565b6040516020818303038152906040528051906020012088604051602001610d2b9190613615565b6040516020818303038152906040528051906020012003610d66576040518060a0016040528060658152602001613ba5606591399050610d82565b6040518060a0016040528060678152602001613c0a6067913990505b5b5b6040518060c001604052808981526020018860ff1681526020018760ff1681526020018681526020018560ff16815260200182815250600860008581526020019081526020016000206000820151816000019081610de2919061389a565b5060208201518160010160006101000a81548160ff021916908360ff16021790555060408201518160010160016101000a81548160ff021916908360ff1602179055506060820151816002019081610e3a919061389a565b5060808201518160030160006101000a81548160ff021916908360ff16021790555060a0820151816004019081610e71919061389a565b50905050610e90338484604051806020016040528060008152506117be565b3373ffffffffffffffffffffffffffffffffffffffff16837f5512ccc5417b7b25df15f8e42a5e8585c49487262769c781465944bebf993a6f84604051610ed791906125e4565b60405180910390a35050505050505050565b6000600960008373ffffffffffffffffffffffffffffffffffffffff1673ffffffffffffffffffffffffffffffffffffffff16815260200190815260200160002060009054906101000a900460ff169050919050565b6000600160008473ffffffffffffffffffffffffffffffffffffffff1673ffffffffffffffffffffffffffffffffffffffff16815260200190815260200160002060008373ffffffffffffffffffffffffffffffffffffffff1673ffffffffffffffffffffffffffffffffffffffff16815260200190815260200160002060009054906101000a900460ff16905092915050565b6000610fdd611460565b90508073ffffffffffffffffffffffffffffffffffffffff168673ffffffffffffffffffffffffffffffffffffffff161415801561102257506110208682610f3f565b155b156110665780866040517fe237d92200000000000000000000000000000000000000000000000000000000815260040161105d929190613240565b60405180910390fd5b6110738686868686611857565b505050505050565b611083611353565b600073ffffffffffffffffffffffffffffffffffffffff168173ffffffffffffffffffffffffffffffffffffffff16036110f55760006040517f1e4fbdf70000000000000000000000000000000000000000000000000000000081526004016110ec9190612d4a565b60405180910390fd5b6110fe81611588565b50565b60007fd9b67a26000000000000000000000000000000000000000000000000000000007bffffffffffffffffffffffffffffffffffffffffffffffffffffffff1916827bffffffffffffffffffffffffffffffffffffffffffffffffffffffff191614806111cc57507f0e89341c000000000000000000000000000000000000000000000000000000007bffffffffffffffffffffffffffffffffffffffffffffffffffffffff1916827bffffffffffffffffffffffffffffffffffffffffffffffffffffffff1916145b806111dc57506111db82611962565b5b9050919050565b600060065482109050919050565b606060028054611200906133c8565b80601f016020809104026020016040519081016040528092919081815260200182805461122c906133c8565b80156112795780601f1061124e57610100808354040283529160200191611279565b820191906000526020600020905b81548152906001019060200180831161125c57829003601f168201915b50505050509050919050565b606060006001611294846119cc565b01905060008167ffffffffffffffff8111156112b3576112b261279e565b5b6040519080825280601f01601f1916602001820160405280156112e55781602001600182028036833780820191505090505b509050600082602001820190505b600115611348578080600190039150507f3031323334353637383961626364656600000000000000000000000000000000600a86061a8153600a858161133c5761133b61396c565b5b049450600085036112f3575b819350505050919050565b61135b611460565b73ffffffffffffffffffffffffffffffffffffffff166113796106b9565b73ffffffffffffffffffffffffffffffffffffffff16146113d85761139c611460565b6040517f118cdaa70000000000000000000000000000000000000000000000000000000081526004016113cf9190612d4a565b60405180910390fd5b565b600073ffffffffffffffffffffffffffffffffffffffff168473ffffffffffffffffffffffffffffffffffffffff160361144c5760006040517f57f447ce0000000000000000000000000000000000000000000000000000000081526004016114439190612d4a565b60405180910390fd5b61145a600085858585611b1f565b50505050565b600033905090565b600073ffffffffffffffffffffffffffffffffffffffff168473ffffffffffffffffffffffffffffffffffffffff16036114da5760006040517f57f447ce0000000000000000000000000000000000000000000000000000000081526004016114d19190612d4a565b60405180910390fd5b600073ffffffffffffffffffffffffffffffffffffffff168573ffffffffffffffffffffffffffffffffffffffff160361154c5760006040517f01a835140000000000000000000000000000000000000000000000000000000081526004016115439190612d4a565b60405180910390fd5b6115598585858585611b1f565b5050505050565b600060208202602084010151905092915050565b600060208202602084010151905092915050565b6000600560009054906101000a900473ffffffffffffffffffffffffffffffffffffffff16905081600560006101000a81548173ffffffffffffffffffffffffffffffffffffffff021916908373ffffffffffffffffffffffffffffffffffffffff1602179055508173ffffffffffffffffffffffffffffffffffffffff168173ffffffffffffffffffffffffffffffffffffffff167f8be0079c531659141344cd1fd0a4f28419497f9722a3daafe3b4186f6b6457e060405160405180910390a35050565b600073ffffffffffffffffffffffffffffffffffffffff168273ffffffffffffffffffffffffffffffffffffffff16036116c05760006040517fced3e1000000000000000000000000000000000000000000000000000000000081526004016116b79190612d4a565b60405180910390fd5b80600160008573ffffffffffffffffffffffffffffffffffffffff1673ffffffffffffffffffffffffffffffffffffffff16815260200190815260200160002060008473ffffffffffffffffffffffffffffffffffffffff1673ffffffffffffffffffffffffffffffffffffffff16815260200190815260200160002060006101000a81548160ff0219169083151502179055508173ffffffffffffffffffffffffffffffffffffffff168373ffffffffffffffffffffffffffffffffffffffff167f17307eab39ab6107e8899845ad3d59bd9653f200f220920489ca2b5937696c31836040516117b1919061269f565b60405180910390a3505050565b600073ffffffffffffffffffffffffffffffffffffffff168473ffffffffffffffffffffffffffffffffffffffff16036118305760006040517f57f447ce0000000000000000000000000000000000000000000000000000000081526004016118279190612d4a565b60405180910390fd5b60008061183d8585611bd1565b9150915061184f600087848487611b1f565b505050505050565b600073ffffffffffffffffffffffffffffffffffffffff168473ffffffffffffffffffffffffffffffffffffffff16036118c95760006040517f57f447ce0000000000000000000000000000000000000000000000000000000081526004016118c09190612d4a565b60405180910390fd5b600073ffffffffffffffffffffffffffffffffffffffff168573ffffffffffffffffffffffffffffffffffffffff160361193b5760006040517f01a835140000000000000000000000000000000000000000000000000000000081526004016119329190612d4a565b60405180910390fd5b6000806119488585611bd1565b915091506119598787848487611b1f565b50505050505050565b60007f01ffc9a7000000000000000000000000000000000000000000000000000000007bffffffffffffffffffffffffffffffffffffffffffffffffffffffff1916827bffffffffffffffffffffffffffffffffffffffffffffffffffffffff1916149050919050565b600080600090507a184f03e93ff9f4daa797ed6e38ed64bf6a1f0100000000000000008310611a2a577a184f03e93ff9f4daa797ed6e38ed64bf6a1f0100000000000000008381611a2057611a1f61396c565b5b0492506040810190505b6d04ee2d6d415b85acef81000000008310611a67576d04ee2d6d415b85acef81000000008381611a5d57611a5c61396c565b5b0492506020810190505b662386f26fc100008310611a9657662386f26fc100008381611a8c57611a8b61396c565b5b0492506010810190505b6305f5e1008310611abf576305f5e1008381611ab557611ab461396c565b5b0492506008810190505b6127108310611ae4576127108381611ada57611ad961396c565b5b0492506004810190505b60648310611b075760648381611afd57611afc61396c565b5b0492506002810190505b600a8310611b16576001810190505b80915050919050565b611b2b85858585611c01565b600073ffffffffffffffffffffffffffffffffffffffff168473ffffffffffffffffffffffffffffffffffffffff1614611bca576000611b69611460565b90506001845103611bb9576000611b8a60008661157490919063ffffffff16565b90506000611ba260008661157490919063ffffffff16565b9050611bb2838989858589611c13565b5050611bc8565b611bc7818787878787611dc7565b5b505b5050505050565b60608060405191506001825283602083015260408201905060018152826020820152604081016040529250929050565b611c0d84848484611f7b565b50505050565b60008473ffffffffffffffffffffffffffffffffffffffff163b1115611dbf578373ffffffffffffffffffffffffffffffffffffffff1663f23a6e6187878686866040518663ffffffff1660e01b8152600401611c749594939291906139f0565b6020604051808303816000875af1925050508015611cb057506040513d601f19601f82011682018060405250810190611cad9190613a5f565b60015b611d34573d8060008114611ce0576040519150601f19603f3d011682016040523d82523d6000602084013e611ce5565b606091505b506000815103611d2c57846040517f57f447ce000000000000000000000000000000000000000000000000000000008152600401611d239190612d4a565b60405180910390fd5b805181602001fd5b63f23a6e6160e01b7bffffffffffffffffffffffffffffffffffffffffffffffffffffffff1916817bffffffffffffffffffffffffffffffffffffffffffffffffffffffff191614611dbd57846040517f57f447ce000000000000000000000000000000000000000000000000000000008152600401611db49190612d4a565b60405180910390fd5b505b505050505050565b60008473ffffffffffffffffffffffffffffffffffffffff163b1115611f73578373ffffffffffffffffffffffffffffffffffffffff1663bc197c8187878686866040518663ffffffff1660e01b8152600401611e28959493929190613a8c565b6020604051808303816000875af1925050508015611e6457506040513d601f19601f82011682018060405250810190611e619190613a5f565b60015b611ee8573d8060008114611e94576040519150601f19603f3d011682016040523d82523d6000602084013e611e99565b606091505b506000815103611ee057846040517f57f447ce000000000000000000000000000000000000000000000000000000008152600401611ed79190612d4a565b60405180910390fd5b805181602001fd5b63bc197c8160e01b7bffffffffffffffffffffffffffffffffffffffffffffffffffffffff1916817bffffffffffffffffffffffffffffffffffffffffffffffffffffffff191614611f7157846040517f57f447ce000000000000000000000000000000000000000000000000000000008152600401611f689190612d4a565b60405180910390fd5b505b505050505050565b611f8784848484612106565b600073ffffffffffffffffffffffffffffffffffffffff168473ffffffffffffffffffffffffffffffffffffffff1603612051576000805b8351811015612035576000611fdd828561157490919063ffffffff16565b90508060036000611ff7858961157490919063ffffffff16565b815260200190815260200160002060008282546120149190613af4565b9250508190555080836120279190613af4565b925050806001019050611fbf565b5080600460008282546120489190613af4565b92505081905550505b600073ffffffffffffffffffffffffffffffffffffffff168373ffffffffffffffffffffffffffffffffffffffff1603612100576000805b83518110156120ed5760006120a7828561157490919063ffffffff16565b905080600360006120c1858961157490919063ffffffff16565b815260200190815260200160002060008282540392505081905550808301925050806001019050612089565b5080600460008282540392505081905550505b50505050565b805182511461215057815181516040517f5b059991000000000000000000000000000000000000000000000000000000008152600401612147929190613269565b60405180910390fd5b600061215a611460565b905060005b835181101561236957600061217d828661157490919063ffffffff16565b90506000612194838661157490919063ffffffff16565b9050600073ffffffffffffffffffffffffffffffffffffffff168873ffffffffffffffffffffffffffffffffffffffff16146122c157600080600084815260200190815260200160002060008a73ffffffffffffffffffffffffffffffffffffffff1673ffffffffffffffffffffffffffffffffffffffff1681526020019081526020016000205490508181101561226957888183856040517f03dee4c50000000000000000000000000000000000000000000000000000000081526004016122609493929190613b28565b60405180910390fd5b81810360008085815260200190815260200160002060008b73ffffffffffffffffffffffffffffffffffffffff1673ffffffffffffffffffffffffffffffffffffffff16815260200190815260200160002081905550505b600073ffffffffffffffffffffffffffffffffffffffff168773ffffffffffffffffffffffffffffffffffffffff161461235c578060008084815260200190815260200160002060008973ffffffffffffffffffffffffffffffffffffffff1673ffffffffffffffffffffffffffffffffffffffff16815260200190815260200160002060008282546123549190613af4565b925050819055505b505080600101905061215f565b50600183510361242857600061238960008561157490919063ffffffff16565b905060006123a160008561157490919063ffffffff16565b90508573ffffffffffffffffffffffffffffffffffffffff168773ffffffffffffffffffffffffffffffffffffffff168473ffffffffffffffffffffffffffffffffffffffff167fc3d58168c5ae7397731d063d5bbf3d657854427343f4c083240f7aacaa2d0f628585604051612419929190613269565b60405180910390a450506124a7565b8373ffffffffffffffffffffffffffffffffffffffff168573ffffffffffffffffffffffffffffffffffffffff168273ffffffffffffffffffffffffffffffffffffffff167f4a39dc06d4c0dbc64b70af90fd698a233a518aa5d07e595d983b8c0526c8f7fb868660405161249e929190613b6d565b60405180910390a45b5050505050565b6040518060c0016040528060608152602001600060ff168152602001600060ff16815260200160608152602001600060ff168152602001606081525090565b6000604051905090565b600080fd5b600080fd5b600073ffffffffffffffffffffffffffffffffffffffff82169050919050565b600061252c82612501565b9050919050565b61253c81612521565b811461254757600080fd5b50565b60008135905061255981612533565b92915050565b6000819050919050565b6125728161255f565b811461257d57600080fd5b50565b60008135905061258f81612569565b92915050565b600080604083850312156125ac576125ab6124f7565b5b60006125ba8582860161254a565b92505060206125cb85828601612580565b9150509250929050565b6125de8161255f565b82525050565b60006020820190506125f960008301846125d5565b92915050565b60007fffffffff0000000000000000000000000000000000000000000000000000000082169050919050565b612634816125ff565b811461263f57600080fd5b50565b6000813590506126518161262b565b92915050565b60006020828403121561266d5761266c6124f7565b5b600061267b84828501612642565b91505092915050565b60008115159050919050565b61269981612684565b82525050565b60006020820190506126b46000830184612690565b92915050565b6000602082840312156126d0576126cf6124f7565b5b60006126de84828501612580565b91505092915050565b600081519050919050565b600082825260208201905092915050565b60005b83811015612721578082015181840152602081019050612706565b60008484015250505050565b6000601f19601f8301169050919050565b6000612749826126e7565b61275381856126f2565b9350612763818560208601612703565b61276c8161272d565b840191505092915050565b60006020820190508181036000830152612791818461273e565b905092915050565b600080fd5b7f4e487b7100000000000000000000000000000000000000000000000000000000600052604160045260246000fd5b6127d68261272d565b810181811067ffffffffffffffff821117156127f5576127f461279e565b5b80604052505050565b60006128086124ed565b905061281482826127cd565b919050565b600067ffffffffffffffff8211156128345761283361279e565b5b602082029050602081019050919050565b600080fd5b600061285d61285884612819565b6127fe565b905080838252602082019050602084028301858111156128805761287f612845565b5b835b818110156128a957806128958882612580565b845260208401935050602081019050612882565b5050509392505050565b600082601f8301126128c8576128c7612799565b5b81356128d884826020860161284a565b91505092915050565b600080fd5b600067ffffffffffffffff8211156129015761290061279e565b5b61290a8261272d565b9050602081019050919050565b82818337600083830152505050565b6000612939612934846128e6565b6127fe565b905082815260208101848484011115612955576129546128e1565b5b612960848285612917565b509392505050565b600082601f83011261297d5761297c612799565b5b813561298d848260208601612926565b91505092915050565b600080600080608085870312156129b0576129af6124f7565b5b60006129be8782880161254a565b945050602085013567ffffffffffffffff8111156129df576129de6124fc565b5b6129eb878288016128b3565b935050604085013567ffffffffffffffff811115612a0c57612a0b6124fc565b5b612a18878288016128b3565b925050606085013567ffffffffffffffff811115612a3957612a386124fc565b5b612a4587828801612968565b91505092959194509250565b600080600080600060a08688031215612a6d57612a6c6124f7565b5b6000612a7b8882890161254a565b9550506020612a8c8882890161254a565b945050604086013567ffffffffffffffff811115612aad57612aac6124fc565b5b612ab9888289016128b3565b935050606086013567ffffffffffffffff811115612ada57612ad96124fc565b5b612ae6888289016128b3565b925050608086013567ffffffffffffffff811115612b0757612b066124fc565b5b612b1388828901612968565b9150509295509295909350565b600067ffffffffffffffff821115612b3b57612b3a61279e565b5b602082029050602081019050919050565b6000612b5f612b5a84612b20565b6127fe565b90508083825260208201905060208402830185811115612b8257612b81612845565b5b835b81811015612bab5780612b97888261254a565b845260208401935050602081019050612b84565b5050509392505050565b600082601f830112612bca57612bc9612799565b5b8135612bda848260208601612b4c565b91505092915050565b60008060408385031215612bfa57612bf96124f7565b5b600083013567ffffffffffffffff811115612c1857612c176124fc565b5b612c2485828601612bb5565b925050602083013567ffffffffffffffff811115612c4557612c446124fc565b5b612c51858286016128b3565b9150509250929050565b600081519050919050565b600082825260208201905092915050565b6000819050602082019050919050565b612c908161255f565b82525050565b6000612ca28383612c87565b60208301905092915050565b6000602082019050919050565b6000612cc682612c5b565b612cd08185612c66565b9350612cdb83612c77565b8060005b83811015612d0c578151612cf38882612c96565b9750612cfe83612cae565b925050600181019050612cdf565b5085935050505092915050565b60006020820190508181036000830152612d338184612cbb565b905092915050565b612d4481612521565b82525050565b6000602082019050612d5f6000830184612d3b565b92915050565b612d6e81612684565b8114612d7957600080fd5b50565b600081359050612d8b81612d65565b92915050565b60008060408385031215612da857612da76124f7565b5b6000612db68582860161254a565b9250506020612dc785828601612d7c565b9150509250929050565b600082825260208201905092915050565b6000612ded826126e7565b612df78185612dd1565b9350612e07818560208601612703565b612e108161272d565b840191505092915050565b600060ff82169050919050565b612e3181612e1b565b82525050565b600060c0830160008301518482036000860152612e548282612de2565b9150506020830151612e696020860182612e28565b506040830151612e7c6040860182612e28565b5060608301518482036060860152612e948282612de2565b9150506080830151612ea96080860182612e28565b5060a083015184820360a0860152612ec18282612de2565b9150508091505092915050565b60006020820190508181036000830152612ee88184612e37565b905092915050565b600067ffffffffffffffff821115612f0b57612f0a61279e565b5b612f148261272d565b9050602081019050919050565b6000612f34612f2f84612ef0565b6127fe565b905082815260208101848484011115612f5057612f4f6128e1565b5b612f5b848285612917565b509392505050565b600082601f830112612f7857612f77612799565b5b8135612f88848260208601612f21565b91505092915050565b612f9a81612e1b565b8114612fa557600080fd5b50565b600081359050612fb781612f91565b92915050565b600080600080600060a08688031215612fd957612fd86124f7565b5b600086013567ffffffffffffffff811115612ff757612ff66124fc565b5b61300388828901612f63565b955050602061301488828901612fa8565b945050604061302588828901612fa8565b935050606086013567ffffffffffffffff811115613046576130456124fc565b5b61305288828901612f63565b925050608061306388828901612fa8565b9150509295509295909350565b600060208284031215613086576130856124f7565b5b60006130948482850161254a565b91505092915050565b600080604083850312156130b4576130b36124f7565b5b60006130c28582860161254a565b92505060206130d38582860161254a565b9150509250929050565b600080600080600060a086880312156130f9576130f86124f7565b5b60006131078882890161254a565b95505060206131188882890161254a565b945050604061312988828901612580565b935050606061313a88828901612580565b925050608086013567ffffffffffffffff81111561315b5761315a6124fc565b5b61316788828901612968565b9150509295509295909350565b7f55524920717565727920666f72206e6f6e6578697374656e7420746f6b656e00600082015250565b60006131aa601f836126f2565b91506131b582613174565b602082019050919050565b600060208201905081810360008301526131d98161319d565b9050919050565b600081905092915050565b60006131f6826126e7565b61320081856131e0565b9350613210818560208601612703565b80840191505092915050565b600061322882856131eb565b915061323482846131eb565b91508190509392505050565b60006040820190506132556000830185612d3b565b6132626020830184612d3b565b9392505050565b600060408201905061327e60008301856125d5565b61328b60208301846125d5565b9392505050565b7f4e487b7100000000000000000000000000000000000000000000000000000000600052603260045260246000fd5b7f53746172746572207061636b20616c726561647920636c61696d656400000000600082015250565b60006132f7601c836126f2565b9150613302826132c1565b602082019050919050565b60006020820190508181036000830152613326816132ea565b9050919050565b7f546f6b656e20646f6573206e6f74206578697374000000000000000000000000600082015250565b60006133636014836126f2565b915061336e8261332d565b602082019050919050565b6000602082019050818103600083015261339281613356565b9050919050565b7f4e487b7100000000000000000000000000000000000000000000000000000000600052602260045260246000fd5b600060028204905060018216806133e057607f821691505b6020821081036133f3576133f2613399565b5b50919050565b7f506f776572206d757374206265203c3d20313030000000000000000000000000600082015250565b600061342f6014836126f2565b915061343a826133f9565b602082019050919050565b6000602082019050818103600083015261345e81613422565b9050919050565b7f446566656e7365206d757374206265203c3d2031303000000000000000000000600082015250565b600061349b6016836126f2565b91506134a682613465565b602082019050919050565b600060208201905081810360008301526134ca8161348e565b9050919050565b7f526172697479206d757374206265206265747765656e203120616e6420350000600082015250565b6000613507601e836126f2565b9150613512826134d1565b602082019050919050565b60006020820190508181036000830152613536816134fa565b9050919050565b7f4e487b7100000000000000000000000000000000000000000000000000000000600052601160045260246000fd5b60006135778261255f565b91507fffffffffffffffffffffffffffffffffffffffffffffffffffffffffffffffff82036135a9576135a861353d565b5b600182019050919050565b7f5761746572000000000000000000000000000000000000000000000000000000600082015250565b60006135ea6005836131e0565b91506135f5826135b4565b600582019050919050565b600061360b826135dd565b9150819050919050565b600061362182846131eb565b915081905092915050565b7f4669726500000000000000000000000000000000000000000000000000000000600082015250565b60006136626004836131e0565b915061366d8261362c565b600482019050919050565b600061368382613655565b9150819050919050565b7f4772617373000000000000000000000000000000000000000000000000000000600082015250565b60006136c36005836131e0565b91506136ce8261368d565b600582019050919050565b60006136e4826136b6565b9150819050919050565b60008190508160005260206000209050919050565b60006020601f8301049050919050565b600082821b905092915050565b6000600883026137507fffffffffffffffffffffffffffffffffffffffffffffffffffffffffffffffff82613713565b61375a8683613713565b95508019841693508086168417925050509392505050565b6000819050919050565b600061379761379261378d8461255f565b613772565b61255f565b9050919050565b6000819050919050565b6137b18361377c565b6137c56137bd8261379e565b848454613720565b825550505050565b600090565b6137da6137cd565b6137e58184846137a8565b505050565b5b81811015613809576137fe6000826137d2565b6001810190506137eb565b5050565b601f82111561384e5761381f816136ee565b61382884613703565b81016020851015613837578190505b61384b61384385613703565b8301826137ea565b50505b505050565b600082821c905092915050565b600061387160001984600802613853565b1980831691505092915050565b600061388a8383613860565b9150826002028217905092915050565b6138a3826126e7565b67ffffffffffffffff8111156138bc576138bb61279e565b5b6138c682546133c8565b6138d182828561380d565b600060209050601f83116001811461390457600084156138f2578287015190505b6138fc858261387e565b865550613964565b601f198416613912866136ee565b60005b8281101561393a57848901518255600182019150602085019450602081019050613915565b868310156139575784890151613953601f891682613860565b8355505b6001600288020188555050505b505050505050565b7f4e487b7100000000000000000000000000000000000000000000000000000000600052601260045260246000fd5b600081519050919050565b600082825260208201905092915050565b60006139c28261399b565b6139cc81856139a6565b93506139dc818560208601612703565b6139e58161272d565b840191505092915050565b600060a082019050613a056000830188612d3b565b613a126020830187612d3b565b613a1f60408301866125d5565b613a2c60608301856125d5565b8181036080830152613a3e81846139b7565b90509695505050505050565b600081519050613a598161262b565b92915050565b600060208284031215613a7557613a746124f7565b5b6000613a8384828501613a4a565b91505092915050565b600060a082019050613aa16000830188612d3b565b613aae6020830187612d3b565b8181036040830152613ac08186612cbb565b90508181036060830152613ad48185612cbb565b90508181036080830152613ae881846139b7565b90509695505050505050565b6000613aff8261255f565b9150613b0a8361255f565b9250828201905080821115613b2257613b2161353d565b5b92915050565b6000608082019050613b3d6000830187612d3b565b613b4a60208301866125d5565b613b5760408301856125d5565b613b6460608301846125d5565b95945050505050565b60006040820190508181036000830152613b878185612cbb565b90508181036020830152613b9b8184612cbb565b9050939250505056fe68747470733a2f2f7261772e67697468756275736572636f6e74656e742e636f6d2f506f6b654150492f737072697465732f6d61737465722f737072697465732f706f6b656d6f6e2f6f746865722f6f6666696369616c2d617274776f726b2f312e706e6768747470733a2f2f7261772e67697468756275736572636f6e74656e742e636f6d2f506f6b654150492f737072697465732f6d61737465722f737072697465732f706f6b656d6f6e2f6f746865722f6f6666696369616c2d617274776f726b2f3133322e706e6768747470733a2f2f7261772e67697468756275736572636f6e74656e742e636f6d2f506f6b654150492f737072697465732f6d61737465722f737072697465732f706f6b656d6f6e2f6f746865722f6f6666696369616c2d617274776f726b2f342e706e6768747470733a2f2f7261772e67697468756275736572636f6e74656e742e636f6d2f506f6b654150492f737072697465732f6d61737465722f737072697465732f706f6b656d6f6e2f6f746865722f6f6666696369616c2d617274776f726b2f372e706e67a2646970667358221220c96af559607fd22d6e309ee931f358c8edf3522339ee6c637e15409ebf250cd164736f6c634300081c003368747470733a2f2f796f75722d6d657461646174612d7572692f7b69647d2e6a736f6e",
  "linkReferences": {},
  "deployedLinkReferences": {}
}